:020000040000FA
:0200000014D01A
:020002000000FC
:0200080098D18D
:02001800BAD15B
:06002A00D08EF28EF28C74
:100030000F01389939913B6B92889380956A8C6A4D
:10004000809881900F01010EC26E000EC16E3A0EB3
:10005000C06E9D9C0F01BA0ECD6ECF6ACE6A186A33
:100060009D809E909F800F01BA0EB16EFE0EB36E02
:10007000660EB26E2B6AA082A192A282260EAC6E90
:10008000900EAB6E080EB86E030EAF6E010EB06E22
:100090003A9D3A9F949C948E9E989D989F9A9E9A82
:1000A0009D8A0F013A9594940C0EBD6E3F0EBE6E64
:1000B000020EBA6EBB6ACEEC01F045EC02F04E0EB9
:1000C000FEEC01F06F0EFEEC01F0230EFEEC01F0F1
:1000D0003A0EFEEC01F054EC02F0560EFEEC01F08C
:1000E0003A0EFEEC01F04EEC02F0540EFEEC01F084
:1000F000690EFEEC01F06D0EFEEC01F0650EFEECFB
:1001000001F03A0EFEEC01F0000E206E3DEC01F025
:10011000A8501EEC01F048EC02F026501EEC02F054
:10012000FEEC01F027501EEC02F0FEEC01F028502E
:100130001EEC02F0FEEC01F0010E066E9D0E2A6E22
:10014000000E206E000E216E46EC01F081B001D051
:10015000F6EC00F080B801D013EC01F01750165CFB
:10016000D8B435D09D0E2A6E000E206E16C021F038
:1001700046EC01F0000E206E3DEC01F0A8501EECA4
:1001800001F048EC02F026501EEC02F0FEEC01F00B
:1001900027501EEC02F0FEEC01F028501EEC02F09D
:1001A000FEEC01F051EC02F02B501EEC01F0275058
:1001B0001EEC02F0FEEC01F02E0EFEEC01F02850D9
:1001C0001EEC02F0FEEC01F0730EFEEC01F016C026
:1001D00017F024A00AD0166A176A2490000E206E29
:1001E000000E216E46EC01F0C5D7B0D75AEC01F0F5
:1001F000C2820000C2B2FDD7C4CF8CFFC4501EEC37
:1002000001F04BEC02F026501EEC02F0FEEC01F087
:1002100027501EEC02F0FEEC01F028501EEC02F01C
:10022000FEEC01F012000F010A0EC402F450FF08A8
:10023000CF6EF350FF08CE6ECD801200296E266A75
:10024000276A286A0001640E296001D02BEF01F0B3
:10025000295E262AF7D700010A0E296001D034EF63
:1002600001F0295E272AF7D70001010E296001D08D
:100270001200295E282AF8D7120020C0A9FFF29E9A
:10028000A69EA69CA680A850F28E120020C0A9FFB0
:1002900021C0A8FFA69EA69CA684F29E550EA76E1E
:1002A000AA0EA76EA682F28EA1A854EF01F0A69422
:1002B000A19812007D0E006E0000002EFDD71200E6
:1002C000000E186201D08EEC01F0010E186201D010
:1002D00091EC01F0020E186201D08EEC01F0030ED9
:1002E000186201D091EC01F0040E186201D08EEC7E
:1002F00001F0050E186201D09AEC01F0060E1862AA
:1003000001D091EC01F0070E186201D094EC01F0DD
:10031000080E186201D097EC01F01200760EBB6E49
:100320001200840EBB6E1200940EBB6E1200B10E52
:10033000BB6E12009D0EBB6E12009EB002D0A1B229
:100340001FD00F019E90F450FF08CF6EF350FF08AE
:10035000CE6E8C46000E1864BCEC01F060EC01F02F
:10036000BA84B180182A090E18621100CD90B1909C
:10037000186A162ABA94110006C08CFF2B6A120064
:10038000A192FE0EB36E660EB26E2B2A11009E9ADB
:0C039000AECF25F0520E25622480110033
:04039C008D948D921D
:1003A0008D900F013B510F0B3B6F3C953C933C9163
:1003B00096949692969095500F0B956E320E77D834
:1003C000030E50D80A0E73D8030E4CD879D8030EFA
:1003D00049D876D8020E46D873D8280E3BD870D8A4
:1003E0000C0E38D86DD8010E35D8050E60D8060E23
:1003F00031D866D8800E2ED863D812000001606F05
:1004000006D80001605102D864D81200E8388D92F5
:10041000F00B0001616F8C500F0B61118C6E8D80A1
:1004200000008D8400008D9412000001656F653915
:1004300005D8E4DF655102D8E1DF12000F0B00019F
:10044000666F0908D8B002D0370E01D0300E000117
:10045000662512000001606F06D80001605102D8C5
:1004600038D81200E8388D92F00B0001616F8C5083
:100470000F0B61118C6E8D9000008D8400008D94A7
:100480001200010EE7DF050E12D0800EE3DF21D04F
:10049000840EE0DF1ED0C20EDDDF1BD0C70EDADF18
:1004A00018D0CC0ED7DF15D0C00ED4DF12D000018B
:1004B000646F60EC02F00001642F59EF02F012004B
:1004C0000A0E0001636F69EC02F00001632FFBD795
:1004D0001200320E0001626F00000000622FFCD794
:0204E000120008
:020000040030CA
:0100010023DB
:010002001FDE
:010003003FBD
:01000500BF3B
:010006008574
:010008000FE8
:01000900C036
:01000A000FE6
:01000B00E014
:01000C000FE4
:01000D0040B2
:00000001FF
